:020000040800F2
:10000000684C0020C101000869170008CF140008DF
:10001000451600088312000833590008000000004C
:100020000000000000000000000000009D4E0008DD
:10003000C913000800000000D1080008A12D000825
:10004000FB010008FB010008FB010008FB010008A0
:10005000FB010008FB010008FB010008FB01000890
:10006000FB010008FB010008FB010008FB01000880
:10007000FB010008FB010008FB010008FB01000870
:10008000FB010008FB010008FB010008FB01000860
:10009000FB010008FB010008FB010008FB01000850
:1000A000FB010008FB010008FB010008FB01000840
:1000B0006D5300087D530008A5530008FB0100089C
:1000C000FB010008FB010008FB010008FB01000820
:1000D000FB010008FB0100081D570008FB01000898
:1000E000FB010008FB010008FB010008FB01000800
:1000F000FB010008FB010008FB010008FB010008F0
:10010000FB010008FB01000811540008FB01000876
:10011000FB010008FB010008FB010008FB010008CF
:10012000FB010008FB010008FB010008FB010008BF
:10013000FB010008FB010008FB010008FB010008AF
:10014000FB010008FB010008FB010008FB0100089F
:10015000FB010008FB010008FB010008FB0100088F
:10016000FB010008FB010008FB010008FB0100087F
:10017000FB010008FB010008FB010008FB0100086F
:10018000FB010008FB010008FB010008FB0100085F
:10019000FB010008FB010008FB010008FB0100084F
:1001A000FB010008FB010008FB010008DFF80CD090
:1001B00000F0F8FA004800475D730008684C002022
:1001C000DFF83800016841F470010160BFF34F8F20
:1001D000DFF82C00016821F040410160BFF36F8F10
:1001E0000848804708480047FEE7FEE7FEE7FEE7CD
:1001F000FEE7FEE7FEE7FEE7FEE7FEE788ED00E04C
:1002000034EF00E005530008AD01000872B67047F6
:1002100062B67047EFF3108072B6704780F31088B3
:10022000704730BF704720BF7047B0FA80F070470A
:1002300090FAA0F0B0FA80F0704790FAA0F0704702
:100240002DE9F05F0546002092469B46884606460B
:10025000814640241BE0284641464746224600F09E
:1002600083F953465A46C01A914110D31146184695
:10027000224600F06AF92D1A67EB01084F46224624
:100280000120002100F061F917EB00094E41201E0A
:10029000A4F10104DFDC484631462A464346BDE866
:1002A000F09F40EA01039B0703D009E008C9121F31
:1002B00008C0042AFAD203E011F8013B00F8013B20
:1002C000521EF9D270472DE9FE4F804681EA0300A5
:1002D000C00F0C46009021F0004123F00045B8EB20
:1002E0000200A94105D24046214690461C460B46D5
:1002F000024623F00040104347D0270DC7F30A0001
:10030000C3F30A510290401A019040286BDAC3F3FC
:10031000130040F4801B0098924620B10023D2EBDA
:10032000030A63EB0B0B01985946C0F1400250469B
:1003300000F00BF906460D4650465946019A00F06A
:1003400023F910EB08006141002487EA115284EA86
:10035000E7731A4340D0009A62B3019A012A4FEA28
:10036000075215DC001B61EB02014FF0004202EA6C
:100370000752CDE90042001C41F5801132462B4660
:1003800000F023F903B0BDE8F08F40462146F9E7BD
:10039000001B61EB0201001C41F5801300185B415A
:1003A0002018A2F5001747EB030140EAD570B619F3
:1003B0006D4111E06D084FEA360645EAC0754FEA17
:1003C0000752001B61EB0201001C41F58011490836
:1003D0004FEA30000019514132462B4603B0BDE8C8
:1003E000F04F00F0E3B80098012240000023D0EB6A
:1003F000020263EBE073009821464FEAE074B8EB29
:10040000000061EB0401E9E783F000435BE781F062
:10041000004158E72DE9FE4F81EA030404F000444F
:1004200021F0004100944FF0000B23F0004350EA0C
:1004300001045ED052EA03045BD0C3F30A54C1F353
:100440000A552C44A4F2F3340194A0FB0254C1F3E6
:10045000130141F48011C3F3130343F4801301FB30
:10046000024400FB034E840A970A44EA815447EA97
:100470008357A4FB076802958D0A05FB07854FEAA1
:10048000932C04FB0C542705029D4FEA065847EABB
:100490001637B5EB08056EEB070C870E920E47EA90
:1004A000811742EA8312A7FB0201B6EB0B0164EB52
:1004B00000042B0D43EA0C335E1844EB1C50DA4663
:1004C0005146E7FB0201C5F313044FEA0B3343EA3D
:1004D00014534FEA0432019C43EA0603A4F10C04CE
:1004E0000294009CCDE900B400F06FF803B0BDE8C1
:1004F000F08F00200146F9E700F0004230F00040A4
:100500000AD0C10D01F56071C0F3160042EA015135
:10051000C20840071143704700200146704730B5BC
:100520000B46014600202022012409E021FA02F5B1
:100530009D4205D303FA02F5491B04FA02F528444B
:10054000151EA2F10102F1DC30BD202A04DB203AA5
:1005500000FA02F1002070479140C2F1200320FA16
:1005600003F3194390407047202A04DB203A21FA14
:1005700002F00021704721FA02F3D040C2F12002BC
:100580009140084319467047202A06DBCB17203AD2
:1005900041FA02F043EAE07306E041FA02F3D04088
:1005A000C2F12002914008431946704710B5141E4D
:1005B00073F1000408DA401C41F1000192185B411C
:1005C0001A4301D120F0010010BD2DE9F04D9246F3
:1005D0009B4611B1B1FA81F202E0B0FA80F220320A
:1005E0009046FFF7B2FF04460F4640EA0A0041EA90
:1005F0000B0153465A46084313D0114653EA0100F3
:1006000019D0C8F140025046FFF7AEFF05460E462E
:10061000504659464246FFF798FF084305D001204F
:1006200004E020463946BDE8F08D0020054346EA47
:10063000E0762C4337430A986305E40AA0EB0800F0
:100640000022FD0A44EA47540A3002D50020014640
:10065000E9E7010510196941DDE90845001969411B
:10066000BDE8F04DA2E72DE9F04D81EA030404F066
:10067000004B21F0004514464FF0000A23F00041E2
:1006800050EA050220D054EA01021DD0C5F30A57F2
:100690000246C5F31303C1F31300C1F30A5640F435
:1006A000801543F48013A7EB0608101BD64608F20A
:1006B000FD3873EB050002D308F1010801E0921840
:1006C0005B41B8F1000F03DA00200146BDE8F08D70
:1006D00000204FF48011064684460EE0171B73EB92
:1006E000050705D3121B63EB050306434CEA010C17
:1006F00049084FEA300092185B4150EA0107EDD1FA
:1007000052EA030012D082EA040083EA050108439A
:1007100005D0101BAB4106D20122002306E00022C7
:100720004FF0004302E06FF0010253101AEB060095
:100730004CEB085110EB0A0041EB0B01BDE8F04D0A
:10074000FFF734BFC1F30A52C1F3130140F2FF3384
:1007500041F480119A4202DA00200146704740F2CB
:1007600033439A42A2F2334202DC5242FFF7FCBE0C
:10077000FFF7EBBE30B5041E71F1000404DB4FF04F
:100780000044404264EB0101141E73F1000405DBD8
:100790001C464FF00043524263EB0403994208BFEA
:1007A000904230BD064C074D06E0E06840F0010382
:1007B00094E8070098471034AC42F6D3FFF7FAFCF0
:1007C000548000087480000870B58C1810F8015B24
:1007D00015F0070301D110F8013B2A1106D110F8DA
:1007E000012B03E010F8016B01F8016B5B1EF9D1DE
:1007F0002B0705D40023521E0DD401F8013BFAE764
:1008000010F8013BCB1A921C03E013F8015B01F8CE
:10081000015B521EF9D5A142D8D3002070BD000063
:10082000EFF3098141B1F1EE101A40F8041D20EDFB
:10083000200A3B490A6810607047B0EC200A02C8E1
:10084000E1EE101A37490A681060704772B64EF62A
:100850002250CEF2000040F2FF01C0F20001017010
:1008600040F2E400C2F20000016881F3088840F21F
:100870005A00C2F2000040F25B01C2F200010A78A5
:10088000027040F2DC05C2F2000540F2E001C2F263
:1008900000010A682A60106880F30988EFF3148069
:1008A00040F0020080F31488BFF36F8FBDE8F00FB3
:1008B0000FBCBDE8005006BC62B608471A484FF0AE
:1008C00080510160704718484FF0805101607047B7
:1008D00072B6EFF3098020E9F00F40F2DC05C2F2B6
:1008E00000052E683060744602F080F940F25A002C
:1008F000C2F2000040F25B01C2F200010A7802700D
:1009000040F2E001C2F200010A682A6044F0F40EED
:100910001068B0E8F00F80F3098862B670470000F5
:10092000DC000020E000002004ED00E070B505468A
:100930000026002400BF1A48006800F480500028F8
:10094000F9D12946012000F02FF81021154800F0B8
:10095000BAFDFC2004F07CFA002004F079FA0120B2
:1009600004F076FA002600E0761CD22EFCDBFF2095
:1009700004F06EFA44EA0044FF2004F069FA44EA05
:100980000024FF2004F064FA04431021054800F01D
:100990009CFDB4F5000F01D3A4F18074204670BD16
:1009A000100402400000024070B504460D461021BC
:1009B0000D4800F088FD00BF0C48006800F480502E
:1009C0000028F9D104F00F0141F0500004F040FA82
:1009D000002004F03DFA284604F03AFA10210248BB
:1009E00000F073FD70BD00000000024010040240E2
:1009F00010B500BF2048006800F480500028F9D1ED
:100A000010211E4800F05FFDF02004F021FA00BF25
:100A10001948006800F480500028F9D110211748C7
:100A200000F053FD06210020FFF7BEFF022108461B
:100A3000FFF7BAFF82210320FFF7B6FF0021042051
:100A4000FFF7B2FF00BF0C48006800F48050002898
:100A5000F9D11021094800F036FDF02004F0F8F932
:100A600000BF0548006800F480500028F9D110212B
:100A7000024800F02AFD10BD1004024000000240B0
:100A80004E4890F83E004E4908704C48C08F001206
:100A900048704A4890F83C0088704848808F00129F
:100AA000C870084690ED001ABDEEC11A454880EDA9
:100AB000001A424890F83200434908703F48408E7F
:100AC000001248703D4890F8300088703B48008E16
:100AD0000012C870084690ED001ADFED3C1A21EEB6
:100AE000211AB0EE410A9FED3A1A20EE011AF0EEFB
:100AF000410A324890F83600364908702F48C08EB7
:100B0000001248702D4890F8340088702B48808E71
:100B10000012C870084690ED001ABDEEC11A2E48AA
:100B200080ED001A254890F83A002C4908702348B7
:100B3000408F00124870214890F8380088701F4894
:100B4000008F0012C870084690ED001ABDEEC11A61
:100B5000234880ED001A204800681A490968401AA5
:100B600001EE100AB8EEC11AC0EE811A1D48C0EDA0
:100B7000001A1B48006813490968401A01EE100A60
:100B8000B8EEC11AC0EE011A1748C0ED001A90ED78
:100B9000001A1448D0ED001A71EE611A104800686E
:100BA0000D490968401A01EE100AB8EEC11A81EE2B
:100BB000812A0E4880ED002A704700004E3900203F
:100BC00064010020F80000206C01002000007A443D
:100BD000CDCCCC3D70010020F0000020740100203D
:100BE000F400002024010020200100202801002022
:100BF000514890F89800514908704F48B0F8980053
:100C0000001248704C4890F8960088704A48B0F836
:100C100096000012C870084690ED001ABDEEC11A89
:100C2000474880ED001A444890F832004549087062
:100C30004148408E001248703F4890F8300088705C
:100C40003D48008E0012C870084690ED001ADFED96
:100C50003E1A21EE211AB0EE410A9FED3C1A20EE19
:100C6000011AF0EE410A344890F89C0038490870A7
:100C70003148B0F89C00001248702F4890F89A0054
:100C800088702D48B0F89A000012C870084690EDA0
:100C9000001ABDEEC11A2F4880ED001A264890F8C0
:100CA000A0002D4908702448B0F8A0000012487038
:100CB000214890F89E0088701F48B0F89E000012EE
:100CC000C870084690ED001ABDEEC11A234880EDA9
:100CD000001A204800681A490968401A01EE100AF3
:100CE000B8EEC11AC0EE811A1D48C0ED001A1B48AB
:100CF000006813490968401A01EE100AB8EEC11ADB
:100D0000C0EE011A1748C0ED001A90ED001A144801
:100D1000D0ED001A71EE611A104800680D4909689B
:100D2000401A01EE100AB8EEC11A81EE812A0E486F
:100D300080ED002A704700004E3900206401002039
:100D4000040100206C01002000007A44CDCCCC3D91
:100D500070010020FC000020740100200001002030
:100D6000300100202C01002034010020514890F86F
:100D7000A400514908704F48B0F8A4000012487010
:100D80004C4890F8A20088704A48B0F8A2000012BF
:100D9000C870084690ED001ABDEEC11A474880EDB4
:100DA000001A444890F83200454908704148408E86
:100DB000001248703F4890F8300088703D48008E1F
:100DC0000012C870084690ED001ADFED3E1A21EEC1
:100DD000211AB0EE410A9FED3C1A20EE011AF0EE06
:100DE000410A344890F8A800384908703148B0F8F2
:100DF000A800001248702F4890F8A60088702D486F
:100E0000B0F8A6000012C870084690ED001ABDEEBA
:100E1000C11A2F4880ED001A264890F8AC002D49E1
:100E200008702448B0F8AC0000124870214890F8CF
:100E3000AA0088701F48B0F8AA000012C8700846BF
:100E400090ED001ABDEEC11A234880ED001A20482B
:100E500000681A490968401A01EE100AB8EEC11A72
:100E6000C0EE811A1D48C0ED001A1B4800681349E6
:100E70000968401A01EE100AB8EEC11AC0EE011A54
:100E80001748C0ED001A90ED001A1448D0ED001A72
:100E900071EE611A104800680D490968401A01EEA8
:100EA000100AB8EEC11A81EE812A0E4880ED002AA0
:100EB000704700004E39002064010020100100201E
:100EC0006C01002000007A44CDCCCC3D70010020A4
:100ED00008010020740100200C0100203C010020CA
:100EE0003801002040010020514890F8B0005149DD
:100EF00008704F48B0F8B000001248704C4890F8A5
:100F0000AE0088704A48B0F8AE000012C8700846BB
:100F100090ED001ABDEEC11A474880ED001A444812
:100F200090F83200454908704148408E00124870E0
:100F30003F4890F8300088703D48008E0012C8701D
:100F4000084690ED001ADFED3E1A21EE211AB0EEB0
:100F5000410A9FED3C1A20EE011AF0EE410A344896
:100F600090F8B400384908703148B0F8B400001265
:100F700048702F4890F8B20088702D48B0F8B20041
:100F80000012C870084690ED001ABDEEC11A2F4835
:100F900080ED001A264890F8B8002D4908702448C2
:100FA000B0F8B80000124870214890F8B600887078
:100FB0001F48B0F8B6000012C870084690ED001A3D
:100FC000BDEEC11A234880ED001A204800681A4976
:100FD0000968401A01EE100AB8EEC11AC0EE811A73
:100FE0001D48C0ED001A1B48006813490968401AE3
:100FF00001EE100AB8EEC11AC0EE011A1748C0ED92
:10100000001A90ED001A1448D0ED001A71EE611A22
:10101000104800680D490968401A01EE100AB8EE40
:10102000C11A81EE812A0E4880ED002A7047000027
:101030004E390020640100201C0100206C010020BA
:1010400000007A44CDCCCC3D70010020140100207A
:1010500074010020180100204801002044010020F4
:101060004C01002008B50EE005F0B6FE03F066FD69
:1010700001231A461946184606F006FB6A46002167
:10108000022001F00FFEEFE708B56A460021C820F4
:1010900001F008FE06F0D8FA6A460021C82001F0E7
:1010A00001FEFFF7A5FC6A460021C82001F0FAFD09
:1010B000FFF79EFC6A460021C82001F0F3FDFFF710
:1010C00097FC6A460021C82001F0ECFDFFF790FC78
:1010D0006A460021C82001F0E5FD03F071FF6A4671
:1010E0000021642001F0DEFD35E04FF480611A48F4
:1010F00000F0E0F9012806D11848807A40F010008D
:101100001649887205E01548807A00F0EF0013490F
:1011100088720821124800F0CDF9012806D10F4845
:10112000807A40F020000D49887205E00B48807AF3
:1011300000F0DF000949887203F0BCFF01231A4662
:101140001946184605F062F806F038F96A4600219B
:10115000022001F0A7FDC8E7001C024078380020FB
:101160000008024070B58AB0064600F06EF800F044
:101170008AF800F063F8044620480068B4FBF0F5F4
:10118000284601F029FE00F069FA09A800F0FAFFEC
:1011900009A8032100220592CDE906210890052027
:1011A0004FF400713322164BCDE90132CDE9031023
:1011B00003200023134A14A10090174801F064F89B
:1011C00009A8032100220592CDE9062108900520F7
:1011D0004FF400713322114BCDE90310CDE90132F8
:1011E000009000230E4A0FA1124801F04DF809A902
:1011F000114801F01DF90AB070BD0000B47C000870
:10120000F806002065100008417070205461736B6F
:10121000204C65643100000078030020F80E0020A7
:1012200089100008417070205461736B204C656414
:101230003200000038040020B80200201FB56846C4
:1012400003F074FB019804B010BD08B500F0E4F998
:1012500000F06EF803F0DEFB00F076F904F042FADD
:1012600000F038F906F0C4F9FFF7C2FB00204FF494
:10127000165301221146009005F03EFD05F098FA44
:1012800008BD00BFFEE710B500F022F800F01AF824
:1012900010BD000010B5002400BF00BFFEF7BAFF6C
:1012A000044600BF00BF1021054800F0CDF900BF83
:1012B00000BF2046FEF7B2FF00BF00BF10BD000018
:1012C000F816002010B5FFF7E5FF10BD00BFFEE7E0
:1012D00010B500200249086000F00AF810BD0000B7
:1012E0001000002001490860704700001000002035
:1012F00010B5FFF7A3FF04460848006840F080706F
:10130000064908600020064948600846006840F029
:10131000010008602046FFF7E5FF10BDFCED00E08E
:10132000001000E00149486870470000001000E02C
:1013300000B587B00121084603F0A8FA012110206A
:1013400003F0D4FA07220A211D4800F090F8072282
:1013500009211B4800F08BF800208DF81A000120AD
:101360008DF81B0002208DF8180000020590022065
:101370008DF8190005A9124800F031F802208DF807
:1013800018004002059005A90D4800F028F84FF418
:10139000E13001900020ADF80800ADF80A00ADF88A
:1013A0000C00ADF810000C20ADF80E0001A90548A6
:1013B00004F04CFA0121034804F0DFF907B000BD46
:1013C00000000240001001407047014600E0491E45
:1013D0000029FCD1704772B6704762B67047F0B50D
:1013E0000A4600210023002400BF3DE0012505FA44
:1013F00001F3156805EA03049C4234D105684F00E7
:101400000326BE40B543056015794E00B540066819
:10141000354305601579012D02D01579022D16D1BD
:1014200085684F000326BE40B543856055794E0060
:10143000B540866835438560456801268E40B543D2
:101440004560456896798E40B6B235434560C568BB
:101450004F000326BE40B543C560D5794E00B54068
:10146000C6683543C560491C1029BFD3F0BDF0B52F
:10147000002300244D07ED0E02FA05F3CE1000F113
:10148000200555F826504E07F70E0F26BE40B543EF
:10149000CF1000F1200646F82750CE1000F12005AD
:1014A00055F8265045EA0304CE1000F1200545F812
:1014B0002640F0BD0246002013690B400BB101200D
:1014C00000E000207047418370470183704700BFF0
:1014D000FEE700001CB50121022003F0D7F901212D
:1014E000084603F0D3F94FF48050009000208DF8A7
:1014F000040001208DF8070002208DF805006946E0
:101500000F48FFF76CFF10210E48FFF7DEFF102099
:10151000009001208DF8040002208DF805000020C5
:101520008DF806008DF8070069460648FFF757FF5B
:1015300010210448FFF7C9FF03F002FC1CBD0000A6
:1015400000040240000002401CB50121072003F006
:101550009DF90120009000208DF804008DF807000F
:1015600069460B48FFF73BFF4FF400500090694677
:101570000848FFF734FF4FF40070009002208DF808
:1015800007008DF8050069460348FFF728FF1CBDDA
:1015900000000240000802400004024070B504460A
:1015A0000D4629462046FFF785FF012800D170BD72
:1015B0000020FCE71CB50121802003F067F94FF4FF
:1015C0008060009001208DF8040000208DF8060056
:1015D00001208DF8070002208DF8050069460D48AE
:1015E000FFF7FDFE0121802003F050F94FF4006069
:1015F000009069460748FFF7F2FE0121802003F0C2
:1016000045F94FF48050009069460248FFF7E7FE25
:101610001CBD0000001C024010B5FFF7CBFF4FF4CB
:1016200080610748FFF751FF4FF400610448FFF75E
:101630004CFF4FF480510248FFF747FF10BD0000F8
:10164000001C024000BFFEE730B505460C462246AE
:101650000021284600F05EF830BD00003EB50020B5
:101660000C4908600C4C02A801214FF4406322464B
:10167000CDE9001009490AA000F016F8BDF80800ED
:1016800042F21071884203D000BFFFF71FFE00BF77
:101690003EBD000014000020081700200823002091
:1016A00048656170000000002DE9F84F05460E46C0
:1016B00017461C46DDE90A894FF0000A00BF00BF4B
:1016C000FEF7A8FD824600BF00BF43463A463146BA
:1016D0002846009400F00EF800BF00BF5046FEF709
:1016E0009DFD00BF00BF42F21070A9F80000BDE8E8
:1016F000F88F000030B5039C0A60651E15444D60EC
:101700008A60034D2D68CD600B61014D296030BDAD
:10171000140000202DE9F04105460B4694460027B1
:10172000002402E03F021F43641C042CFAD36046ED
:1017300005F00306294646B1344603E001F8013BB3
:10174000401E641C08B1042CF8D30A4601E080C294
:10175000001F0428FBD2114602E001F8013B401EA5
:101760000028FAD1BDE8F0817047000070B5002173
:1017700000230F22C4781CB3174C246804F4E064DF
:10178000C4F5E064C4F30721C1F10404E3B20A41E3
:1017900044789C40E1B28478144021430C07210E28
:1017A0000E4C05786155047804F01F050124AC4007
:1017B00005786D11AD0005F1E025C5F8004109E09F
:1017C000047804F01F050124AC40054D067876111D
:1017D00045F8264070BD00000CED00E000E400E09C
:1017E00080E100E002490143024A116070470000B5
:1017F0000000FA050CED00E07047000010B503484A
:10180000006810B101480068804710BD2C0000201E
:1018100070B5044600F0AEF8002041490870414917
:1018200008704149087041490860414908604149D0
:1018300008704149087041490870414908604149B0
:101840000860414908604148006858B1404805684F
:1018500045B13E48066803E0761E002028602D1D35
:10186000002EF9D100203B4908603B4908603B4904
:1018700008603B4908603B4908603B4908603B49B8
:1018800008603B49087001F097FE01F0D1FE204648
:1018900001F08EFB208800B170BD204601F0EEFB08
:1018A000208800B1F8E7204601F0F4FB208800B161
:1018B000F2E7204601F0C6FC208800B1ECE72046A4
:1018C00001F0AAFE208800B1E6E7204601F070FF93
:1018D000208800B1E0E7204602F016FA208800B127
:1018E000DAE7204601F092FB208800B1D4E72046D9
:1018F00002F04AFE208800B1CEE7204602F0D8F878
:10190000208800B1C8E7204602F0A2FE208800B17E
:10191000C2E701F079FAFFF76FFF00BFBCE70000F4
:10192000400000204100002074000020DC00002066
:10193000E00000205A0000205B0000205C00002036
:10194000680000206C00002070000020847C0008EB
:10195000807C0008200000202400002028000020B7
:101960002C0000203000002034000020380000202F
:10197000A2000020064800680649096800EB8100C3
:10198000054908600846006820F0070008607047B5
:10199000807C0008847C0008E4000020084800786F
:1019A000012800D0704707480078FA2800DBF9E7E3
:1019B00004480078401C0349087000BFF2E70000AB
:1019C000410000204000002010B500242D48007880
:1019D000012800D010BD00BFFEF71CFC044600BF6C
:1019E0002948007828B900BF2046FEF717FC00BF41
:1019F000F0E725480078401E234908700846007823
:101A0000002805DD00BF2046FEF708FC00BFE1E727
:101A10001E480078002805DD00BF2046FEF7FEFBCB
:101A200000BFD7E701F0B4FD1949087008460078F7
:101A300000EB4000174951F820001749086008469C
:101A4000006816490968884205D100BF2046FEF7A4
:101A5000E5FB00BFBEE710480068D0F88C00401CD2
:101A60000D490968C1F88C000D480068401C0C49FC
:101A70000860FEF728FF00BF2046FEF7CFFB00BF3F
:101A800000BFA7E7410000204000002074000020B4
:101A90005B00002068310020E0000020DC00002016
:101AA000980000202DE9F04104460E461546002717
:101AB00024B945F6C3502880BDE8F08100BF00BFBF
:101AC000FEF7A8FB074600BF00BF10482060666015
:101AD00000202062606284F82800E06204F10800BF
:101AE00001F061FC204601F03DFB09480088401CE4
:101AF0000749088000BF00BF3846FEF78FFB00BFD4
:101B000000BF0020288000BFD6E700004D55545884
:101B1000580000202DE9F04788B005468946174651
:101B20001C46109E4FF0000A2DB945F6C350308078
:101B300008B0BDE8F0871FB1B7F5004F02D100E053
:101B400000BF03E045F625603080F1E700BF624941
:101B50002868884203D045F6C4503080E8E70CB1CD
:101B60000020206000BF00BFFEF754FB824600BF8C
:101B700000BF95F82800B8B958480068686201208D
:101B800085F828000CB1E86A2060294653480068AF
:101B900001F000FB00BF00BF5046FEF73FFB00BF57
:101BA00000BF00203080C3E74C49686A096888425A
:101BB00012D195F82800401C85F828000CB1E86A7D
:101BC000206000BF00BF5046FEF728FB00BF00BFEB
:101BD00045F282703080ABE707F4004050B100BF9F
:101BE00000BF5046FEF71AFB00BF00BF46F2B01020
:101BF00030809DE73A48007800280ADD00BF00BF2A
:101C00005046FEF70BFB00BF00BF46F66350308026
:101C10008EE7D5F8248098F837003049096891F8A4
:101C20003710884206DD2D48006890F8371040468E
:101C300001F0BAFF4B4604222946684601F00EFB2C
:101C400000BF00BF5046FEF7E9FA00BF00BF00F03A
:101C50000FF900BF00BFFEF7DDFA824600BF00BFEC
:101C60001E48006890F8350030B101280CD00228D9
:101C70001AD0032821D110E01CB118480068806CEC
:101C80002060002030801CE01CB114480068806C8B
:101C9000206046F2A910308013E00CB100202060D3
:101CA00047F2D92030800CE01CB10C480068806CF1
:101CB000206045F6C250308003E046F62E6030804A
:101CC00000BF00BF00BF00BF5046FEF7A7FA00BF2D
:101CD00000BF00BF2CE700004D555458DC00002029
:101CE000740000202DE9F84F0446894615464FF050
:101CF000000B24B945F6C3502880BDE8F88FB9F130
:101D0000000F03D0B9F5004F02D100E000BF03E09F
:101D100045F625602880F0E700BF524920688842D8
:101D200003D045F6C4502880E7E700BF00BFFEF7A8
:101D300071FA834600BF00BF4B49606A0968884258
:101D40000AD000BF00BF5846FEF768FA00BF00BFC8
:101D500045F281702880D0E7FFF7E4FA8046283406
:101D6000C4F804802078401E207014F82809002848
:101D70000ADD00BF00BF5846FEF750FA00BF00BFA3
:101D800045F283702880B8E721463748006801F0A3
:101D90004BFA04F1080ABAF8080068B9002060623A
:101DA00084F8280000BF00BF5846FEF737FA00BF8E
:101DB00000BF00202880A0E72B48006890F837007B
:101DC0002949096891F83810884228D026480068C7
:101DD00001F014FA06462448006890F83810B14221
:101DE00004DA2148006890F8380000E030460646E2
:101DF0001D48006890F83700B04210DA1A480068B1
:101E000001F07CFC1848006880F83760304601F02B
:101E1000DFFB1548006801F053FC14480670DAF83F
:101E2000000087686762012084F828002146384650
:101E300001F0B0F900231A4639462046CDF800805B
:101E400001F024FB00BF00BF5846FEF7E7F900BFD2
:101E500000BF09F4004008B900F00AF8002028800B
:101E600000BF4AE74D555458DC0000205A000020BE
:101E700010B5002420480078002800DD10BD1F4860
:101E80000078002800DDF9E700BFFEF7C3F904463B
:101E900000BF01F07DFB1A4908700846007800EB8E
:101EA0004000184951F820001749086008460068AA
:101EB00016490968884205D100BF2046FEF7AEF9F1
:101EC00000BFDBE710480068D0F88C00401C0E49CA
:101ED0000968C1F88C000E480068401C0C49086075
:101EE000FEF7ECFC00BF2046FEF798F900BFBFF3F9
:101EF0006F8F00BFC2E70000400000207400002088
:101F00005B00002068310020E0000020DC000020A1
:101F10009800002070B50446002514480078012878
:101F200003D045F68960208070BD11480078FA28FA
:101F300003DB45F209202080F6E700BF00BFFEF773
:101F400069F9054600BF00BF09480078401C0849F0
:101F5000087001F001FC00BF00BF2846FEF75EF9E3
:101F600000BF00BF0020208000BFDDE7410000204F
:101F70007400002070B5044600251C480078012834
:101F800003D045F68960208070BD1948007818B9E3
:101F900046F664502080F7E700BF00BFFEF73AF92D
:101FA000054600BF00BF12480078401E1049087067
:101FB0000846007800280ADD00BF00BF2846FEF76B
:101FC0002DF900BF00BF46F663502080DCE701F02A
:101FD000D1FB00BF00BF2846FEF720F900BF00BFBD
:101FE000FFF746FF0020208000BFCDE74100002022
:101FF0007400002010B5044612480078E8B901F0DA
:10200000C7FA1149087008460078104908700E4850
:10201000007800EB40000E4951F820000D4908609F
:10202000084600680C490860012006490870FEF760
:102030000DFC43F69920208002E045F68A6020805E
:1020400010BD0000410000205B0000205A0000206D
:1020500068310020E0000020DC0000202DE9F04184
:1020600007464FF0000800BF00BFFEF7D3F88046D8
:1020700000BF00BF00203B4908803B4908603B4946
:1020800008603B4908603B4908603B49088100BF44
:1020900000BF4046FEF7C2F800BF00BF00BF00BF50
:1020A000FEF7B8F8804600BF00BF3448046800BFA0
:1020B00000BF4046FEF7B2F800BF00BF21E000BFFE
:1020C00000BFFEF7A7F8804600BF00BF00207434B1
:1020D000E06320602063A061A082E0826062A06271
:1020E000FFF720F92062743C04F160060020B08103
:1020F000D4F8B84000BF00BF4046FEF78FF800BFDD
:1021000000BF002CDBD100BF00BFFEF783F8804684
:1021100000BF00BF1A48056800BF00BF4046FEF779
:102120007DF800BF00BF12E000BF00BFFEF772F8ED
:10213000804600BF00BF05F120060020B081AD69D8
:1021400000BF00BF4046FEF769F800BF00BF002D8A
:10215000EAD102F00FF902F021FB00203880BDE83F
:10216000F08100008200002094000020A8000020E0
:10217000CC0000206C0000205C3100209C0000207E
:1021800060000020F8B5044600266946324800F099
:102190001BFDBDF8000018B1BDF800002080F8BD9F
:1021A0006A460021022000F07DFDBDF8000018B154
:1021B000BDF800002080F2E700BF00BFFEF72AF85C
:1021C000064600BF00BF00202449086000BF00BFD2
:1021D0003046FEF723F800BF00BF00252048006806
:1021E00020490968884205D91D4800681D490968C9
:1021F000B0FBF1F525B91A4800680A21B0FBF1F5EA
:102200006A460021284600F04DFD6946124800F05C
:10221000DFF9BDF8000018B1BDF800002080BEE76E
:1022200000BF00BFFDF7F6FF064600BF00BF00205D
:102230000D490860094800680C49086001200C49F4
:10224000087000BF00BF3046FDF7E8FF00BF00BFC9
:102250000020208000BFA2E7183600208400002064
:10226000B47C00089C7C00089400002088000020BA
:102270009000002010B50348006810B101480068C4
:10228000804710BD300000202DE9FF4F87B0044685
:102290009046DDE91BA5DDE91496179F0020039009
:1022A0002CB947F2AD1028800BB0BDE8F08FB8F123
:1022B000000F03D147F24F102880F5E71EB946F60C
:1022C0002F602880F0E750480068874203D246F626
:1022D00030602880E8E71698B84203D346F63160AC
:1022E0002880E1E7B9F1400F03D346F2732028803C
:1022F000DAE7B9F13F0F06D14448844203D046F2F1
:1023000073202880D0E7204601F00EFD00202880B1
:102310000AF0010090B10AF0020078B105960020A1
:10232000069008E00021059801600598001D0590C1
:102330000698401C06900698B842F3D3169806EB10
:1023400080000490CDE9007A32464046049B0A9909
:1023500000F0D8FA0590C4F828800A98E06208983E
:10236000206284F8379084F83890059820600498AB
:10237000A0601A98606066622764A4F844A04FF0D9
:10238000000B08E0002104F1780040F82B100BF15D
:10239000010000F0FF0BBBF1000FF3D004F160006F
:1023A000189900F0D7FE204600F036F800BF00BFB5
:1023B000FDF730FF039000BF00BF94F8370001F035
:1023C00007F9204601F07CF9204601F063FC104833
:1023D0000088401C0E4908800E480078012807D06C
:1023E00000BF00BF0398FDF719FF00BF00BF5BE708
:1023F00000BF00BF0398FDF711FF00BF00BFFFF74C
:1024000037FD00BF50E70000B07C00089C30002082
:10241000A00000204100002010B5044603480068D9
:1024200018B1204601490968884710BD20000020E6
:102430002DE9F04104460E464FF000085B48844207
:1024400004D147F24C103080BDE8F0817CB900BF68
:1024500000BFFDF7DFFE804600BF00BF54480468A0
:1024600000BF00BF4046FDF7D9FE00BF00BF00BF60
:1024700000BFFDF7CFFE804600BF00BF94F83600D6
:10248000082860D2DFE800F004090E10080A0F11D6
:10249000204601F033F961E060E000BF204601F022
:1024A0003DFF5BE000BF00BF00BF94F83400082888
:1024B0003BD2DFE800F0040705080E090A0600BF5A
:1024C00000BF33E000BF00BF00BF204600F0A3FF05
:1024D0002CE0206BC068456A15F8377F204600F075
:1024E0009AFF28786978373D884212D095F83700EE
:1024F00094F8371088420CD1284600F07FFE07463A
:1025000095F83800B84202DA95F8380000E038460D
:102510000746002084F8340095F83700B84203D00D
:102520003946284601F040FB00E000BF00BF94F8A8
:102530003600032803D094F83600072802D120463D
:1025400001F0ECFE0AE000BF00BF4046FDF766FE6A
:1025500000BF00BF46F62D60308075E700BFE06B1E
:1025600010B1204600F01AFE04F1600000F0D0FD2A
:10257000204600F021F8204601F0A4FB0D48008819
:10258000401E0C490880204601F0CEFBFF2084F855
:10259000360000BF00BF4046FDF740FE00BF00BF51
:1025A00000203080FFF764FC00BF4DE79C30002026
:1025B000DC000020A000002010B50446034800689D
:1025C00018B1204601490968884710BD2400002041
:1025D00070B504460D46002600BF00BFFDF71AFE89
:1025E000064600BF00BF1CB10D48006884420AD1F6
:1025F00000BF00BF3046FDF711FE00BF00BF47F22D
:102600005710288070BD00BF00BF3046FDF706FEA2
:1026100000BF00BF2946204601F0E4FB00BFF1E700
:10262000DC00002010B504460348006818B12046BD
:1026300001490968884710BD280000202DE9F047AE
:1026400080460E4614461D464FF000091EB1B6F5F1
:10265000004F02D100E000BF05E045F6256028806C
:102660000020BDE8F08700BF0CB10020206000BF53
:1026700000BFFDF7CFFD814600BF00BF5F48006887
:10268000C06CA8B35D480068C06C401E5B49096817
:10269000C8645A480068C76C1CB158480068806C10
:1026A0002060FEF73FFE55490968896C401A53497E
:1026B0000968C1F8A00051480068D0F8A4004F494B
:1026C0000968D1F8A010884207D24C480068D0F8B9
:1026D000A0004A490968C1F8A40000BF00BF4846ED
:1026E000FDF79CFD00BF00BF002028803846B8E7FA
:1026F000FFE706F4004058B100BF00BF4846FDF7B1
:102700008DFD00BF00BF46F2B01028800020A8E772
:102710003B48007800280BDD00BF00BF4846FDF7AE
:102720007DFD00BF00BF46F663502880002098E77B
:10273000434607220021084600F090FD00BF00BF7D
:102740004846FDF76BFD00BF00BFFFF791FB00BFE0
:1027500000BFFDF75FFD814600BF00BF274800684E
:1027600090F8350020B1012826D0032834D12CE080
:10277000FCB122480068806C2060FEF7D3FD1F4941
:102780000968896C401A1D490968C1F8A0001B48F6
:102790000068D0F8A40019490968D1F8A01088424F
:1027A00007D216480068D0F8A00014490968C1F89B
:1027B000A4000020288013E01CB110480068806C41
:1027C000206046F2A91028800AE00CB100202060A9
:1027D00047F2D920288003E046F62E60288000BF0B
:1027E00000BF06480068C76C00BF00BF4846FDF741
:1027F00015FD00BF00BF384633E70000DC000020B5
:10280000740000202DE9F04106460D4614461DB126
:10281000B5F5004F02D100E000BF05E045F62560A8
:1028200020800020BDE8F08100BFFEF77BFD8046E0
:10283000234642462946304601F060FB07463846AB
:10284000F0E700002DE9F04704460E4617461D4606
:102850004FF0000A26B946F2D5202880BDE8F0875F
:102860001FB946F2D5202880F8E700BF00BFFDF76A
:10287000D1FC824600BF00BF0CB921480468206823
:1028800068B900BF00BF5046FDF7C8FC00BF00BFDD
:1028900000203060386047F252102880DEE794F85C
:1028A000440000F0010068B900BF00BF5046FDF7CA
:1028B000B5FC00BF00BF00203060386047F2541004
:1028C0002880CBE700BF00BF5046FDF7A7FC00BF44
:1028D00000BF4FF00008D4F8249003E009F1040988
:1028E00008F10108D9F800000028F7D0C6F80080E8
:1028F000206CA0EB080038600020288000BFADE706
:10290000DC000020F0B50446DDE9055602EB850049
:1029100020F007004FF0807C071F3846C7F800C042
:10292000071F38463C60DFF834C2071F3846C7F837
:1029300000C04FF0123C071F3846C7F800C04FF0E8
:10294000033C071F3846C7F800C04FF0023C071F82
:102950003846C7F800C0071F38463B60071F384697
:1029600039604FF0113C071F3846C7F800C04FF0E0
:10297000103C071F3846C7F800C04FF0093C071F3E
:102980003846C7F800C04FF0083C071F3846C7F864
:1029900000C04FF0073C071F3846C7F800C04FF093
:1029A000063C071F3846C7F800C04FF0053C071F1C
:1029B0003846C7F800C04FF0043C071F3846C7F838
:1029C00000C006F00407002F7ED04FF0007C071FE8
:1029D0003846C7F800C0DFF888C1071F3846C7F877
:1029E00000C0DFF880C1071F3846C7F800C0DFF815
:1029F00078C1071F3846C7F800C0DFF870C1071F4D
:102A00003846C7F800C0DFF868C1071F3846C7F866
:102A100000C0DFF860C1071F3846C7F800C0DFF804
:102A200058C1071F3846C7F800C0DFF850C1071F5C
:102A30003846C7F800C0DFF848C1071F3846C7F856
:102A400000C0DFF840C1071F3846C7F800C0DFF8F4
:102A500038C1071F3846C7F800C0DFF830C1071F6C
:102A60003846C7F800C0DFF828C1071F3846C7F846
:102A700000C0DFF820C1071F3846C7F800C0DFF8E4
:102A800018C1071F3846C7F800C04FF0834C071F16
:102A90003846C7F800C0DFF804C1071F3846C7F83A
:102AA00000C0DFF8FCC0071F3846C7F800C0DFF8D9
:102AB000F4C0071F3846C7F800C0DFF8ECC0071F96
:102AC0003846C7F800C000E047E0DFF8E0C0071F65
:102AD0003846C7F800C0DFF8D8C0071F3846C7F827
:102AE00000C0DFF8D0C0071F3846C7F800C04FF05D
:102AF000824C071F3846C7F800C0DFF8BCC0071F6C
:102B00003846C7F800C0DFF8B4C0071F3846C7F81A
:102B100000C0DFF8ACC0071F3846C7F800C04FF050
:102B2000814C071F3846C7F800C0DFF898C0071F60
:102B30003846C7F800C04FF0804C071F3846C7F82A
:102B400000C04FF07E5C071F3846C7F800C04FF04A
:102B5000000C071F3846C7F800C0F0BDE53E00086E
:102B60000000F8410000F0410000E8410000E041B1
:102B70000000D8410000D0410000C8410000C04121
:102B80000000B8410000B0410000A8410000A04191
:102B90000000984100009041000088410000704111
:102BA0000000604100005041000040410000304101
:102BB00000002041000010410000E0400000C04043
:102BC0000000A0400000404070B505460C46064895
:102BD000854203D147F25B10208070BD2146284614
:102BE00001F06EFA00BFF8E79C30002010B52948CC
:102BF000006890F8440000F0040020B125490968FD
:102C00000868FDF70DFE2448006890F8440000F0C5
:102C1000040020B1204909680868FDF70EFE1F482E
:102C2000006810B11D4800688047FEF77BFB044632
:102C30001848006818490968884215D01548006886
:102C4000D0F89400201A13490968C1F8900011487F
:102C50000068D0F898000F490968D1F8901008442E
:102C60000C490968C1F898000B480068C0F8944006
:102C700008480068D0F8B00009490968884205D2C0
:102C80000748006803490968C1F8B00000200449FA
:102C9000086010BDDC000020E000002034000020AF
:102CA000700000202DE9F04105460E46144600272D
:102CB00023480078002804DD46F663502080BDE8F4
:102CC000F08136B1022E05D0042E0AD0082E09D18B
:102CD00001E000BF00BF1DB947F27E202080EEE773
:102CE00004E003E045F625602080E8E700BF00BF70
:102CF00000BFFDF78FFA074600BF00BF23463246EC
:102D000029461048006801F0ABFA208838B100BFAE
:102D100000BF3846FDF782FA00BF00BFCFE7094881
:102D2000006800F0EBFC00BF00BF3846FDF776FA04
:102D300000BF00BFFFF79CF80020208000BFBEE767
:102D400074000020DC00002008B500F01FF86A467F
:102D500000210A48FFF756FD09480068401E08494F
:102D600008600846006838B90648006808606A4686
:102D700000210548FFF746FD08BD0000283500206A
:102D8000D8000020D40000201836002010B50348D9
:102D9000006810B101480068804710BD380000206D
:102DA00010B5002400BF00BFFDF734FA044600BF91
:102DB00000BF08480078401C0649087000BF00BFEB
:102DC0002046FDF72BFA00BF00BFFFF7BDFFFEF75F
:102DD000FBFD10BD4000002001464A1E4FF0E023DD
:102DE0005A61084A106820F07F4000BF10601A4600
:102DF000126942F005021A611A46126942F0020293
:102E00001A61704720ED00E0244A2549254A264AE8
:102E10002649274A2748284A284A294A294A2A4827
:102E20002A482B4A2B482C4A2C482D4A2D482E48FC
:102E30002E482F482F4A304A304A3148314A324AC8
:102E40003248334833483448344835483548364AA0
:102E5000364A374A374A384838483948394A3A4A68
:102E60003A4A3B483B483C483C493D483D4A3E4A3B
:102E70003E4A3F4A3F4A404A404A4148414A424A04
:102E800042484348434A444A4448454A454A4648DA
:102E9000464800BF00BF00BF70470000E87C000844
:102EA000507E0008E97C0008EA7C0008EC7C000801
:102EB000F07C0008F47C0008F17C00081C7D000810
:102EC0001D7D00081E7D0008207D0008227D000871
:102ED000267D0008287D0008487D00084A7D0008FE
:102EE0004C7D00084E7D0008507D0008527D000892
:102EF000547D0008847D0008857D0008867D0008DB
:102F0000887D00088A7D00088B7D00088C7D000884
:102F10008E7D0008907D0008927D0008947D000859
:102F2000967D0008987D0008C87D0008C97D0008CE
:102F3000CA7D0008CB7D0008CC7D0008CE7D00084E
:102F4000D07D0008F87D0008F97D0008FA7D0008B2
:102F5000FB7D0008FC7D0008FE7D0008007E000867
:102F6000047E0008057E0008067E0008077E000833
:102F7000087E0008097E00080A7E00080B7E000813
:102F80000C7E00080E7E00080F7E0008107E0008F0
:102F9000127E0008147E0008157E0008187E0008C6
:102FA000487E0008497E00084A7E00084C7E0008E2
:102FB0000021034A1160034A11800180704700001C
:102FC0004400002048000020002419E000BF00BF9A
:102FD000FDF720F9044600BF00BF0A480068401C06
:102FE0000849086008480068401C0749086000BF9D
:102FF00000BF2046FDF712F900BF00BFFEF7FEFB41
:10300000E4E700003C0000208400002010B58AB0F6
:10301000044600200E4908600B2000210591CDE9EF
:103020000704069108460B4909680B4A12680B4BC6
:103030001B68CDE90132CDE903103F200023084A87
:1030400008A100900C48FFF71FF90AB010BD00005E
:103050003C0000205C7C0008587C0008547C000880
:10306000C92F000875432F4F532D49494920496402
:103070006C65205461736B009C3000200021034A72
:103080001160034A11800180704700004C0000204D
:103090005000002070B501461A4D2D681DB945F24B
:1030A0001E750D8070BD184D2D881DB945F21D751A
:1030B0000D80F7E7134D28682A681032124D2D88CD
:1030C0006D1EACB2002308E002600025456005815A
:1030D000C560103010325D1CABB2A342F4DB00259A
:1030E000056045600581C560064D2D68074E356059
:1030F000054D2D88B5800025F58035810D8000BFF8
:10310000D0E70000947C00088C7C00085C31002033
:1031100010B5014648894B89002B17DD0A680C4B16
:103120001B6813600A4C4B6823602346DB884C897C
:103130001B1B074CE38023469B884C892344044C8B
:10314000A38000234B818B810B604B6010BD00007E
:103150005C31002001810022428182810260426054
:103160007047000009A1C161002141610849096857
:1031700011B90021816105E00549096881610449AF
:10318000096848610249086070470000200000009B
:1031900054000020C26B0A62C16370472DE9F843F6
:1031A0000546EC6B26E0D4F82090FEF7BBF8064607
:1031B000E6622146284600F037F804F10808B8F81E
:1031C000080020B9002084F82800606211E0D8F8D7
:1031D000000087686562012084F82800214638468F
:1031E000FFF7D8FF00231A4639462046009600F024
:1031F0004DF94C46002CD6D1BDE8F88330B50446D5
:103200003F2004F13C010BE00D68AB682BB19D68D9
:1032100095F83720824200DA10460D6805F120014A
:103220000D68002DF0D130BD024602F13C0002E0F5
:10323000036803F1200003688B42F9D103681B6A1D
:10324000036070470021034A1160034A1180018026
:103250007047000054000020580000202DE9F04184
:1032600005460C4616461F461548006880F834602F
:1032700000201349096881F8350039461048006874
:1032800000F07CFC6CB104F10808EC6001222946D6
:103290000B48006800F016F82946404600F088F810
:1032A00007E0002006490968A1F8460004490968BA
:1032B000086303480168204600F018F8BDE8F08173
:1032C000DC00002010B5A0F84620016300230AE0CE
:1032D00000244C600C600C614C610C83CC618860F4
:1032E00020315C1CA3B29342F2DB10BD30B548B173
:1032F0004568C1F8BC5000F10804226893681D6A53
:10330000C56113E091F83450022D02D0072D08D189
:1033100003E007A5C1F8BC5007E007A5C1F8BC5001
:1033200003E008A5C1F8BC5000BF00BF30BD0000DD
:103330005461736B205100005461736B2053656DB1
:10334000000000002000000030B507A5C1F8BC5007
:1033500000F1080422681AB193681D6AC56101E092
:1033600001A5C56130BD0000200000002DE9F0413D
:103370000446256BB4F8467011E0D5F80C8008F1CE
:1033800008063089012807D92946304600F05DF843
:103390002946304600F00CF82035781E87B2002F01
:1033A000EBD1BDE8F08100210160416001817047EF
:1033B000F0B58E6896F8375007893FB90127078125
:1033C00000274F600F600160416023E007897F1C88
:1033D0000781026806E0946894F83770AF4200DD18
:1033E00002E05268002AF6D100BF32B900274F60D0
:1033F00043680B60596041600CE017682FB9116099
:1034000000270F604A60016004E013680B604A60A7
:1034100059601160F0BD2DE9F0410446256BB4F808
:1034200046600AE0D5F80C8008F1080729463846BE
:1034300000F00BF82035701E86B2002EF2DC002062
:10344000A4F846002063BDE8F08110B50489012C82
:1034500003D100240460446011E00C6824B94A6878
:103460000024146002600AE04C6824B90B68002450
:103470005C60436003E00B684A685A60136004892B
:10348000641E048100244C600C6010BD2DE9F843DB
:1034900006460C4617469846089D94F836000828BC
:1034A0005BD2DFE800F0040508090607323300BFED
:1034B00000BF00BF52E000BF94F83400032807D1DA
:1034C00043463A4621463046009500F04AF803E06C
:1034D000A765A4F85C80A56436B12046FFF79BFF82
:1034E00021463046FFF730FF94F83600032802D11A
:1034F000204600F013FF204600F0ACF800203434E2
:10350000A070607004F8340928E000BF94F834001B
:10351000032807D143463A4621463046009500F03D
:1035200020F803E0A765A4F85C80A56436B12046C6
:10353000FFF771FF21463046FFF706FF94F836008B
:10354000072802D1204600F0E9FE04203434A070A0
:103550000020607004F8340900E000BF00BFBDE83F
:10356000F883F0B50446059E086BB1F846500AE0B2
:10357000C768A74204D1046142610383C66104E0C5
:1035800020306F1EBDB2002DF2DC00BFF0BD000088
:1035900070B50025074C03E005F12000C5B2241DDD
:1035A00020680028F8D02068FCF73FFE2844C5B208
:1035B000284670BD18000020002004E00021034AC6
:1035C00042F82010401C0228F8D370471800002051
:1035D00030B5420900F01F030121C3F11F04A140CF
:1035E000034C54F822400C43014D45F8224030BDB5
:1035F0001800002030B5420900F01F030121C3F17B
:103600001F04A140034C54F822408C43014D45F85F
:10361000224030BD180000200021034A1160034AF7
:1036200011800180704700006000002064000020CD
:1036300000210AE001EB4102054B03EB820000226E
:103640000281026042604A1CD1B24029F2D3704725
:103650006831002010B5044694F83700FFF7B8FF32
:1036600094F8370005490978884203D1204600F0D4
:1036700027F802E0204600F003F810BD5A000020B1
:1036800010B590F8373003EB43030C4C04EB830187
:103690000B893BB901230B810023C36003610860E0
:1036A000486009E00B895B1C0B810B68C360002339
:1036B00003610A681061086010BD000068310020D5
:1036C00010B590F8373003EB43030B4C04EB830148
:1036D0000B893BB901230B810023C36003610860A0
:1036E000486008E00B895B1C0B810023C3604A68BB
:1036F0000261D060486010BD683100202DE9F041C2
:10370000054695F8370000EB4000124901EB8004B4
:103710002F69EE6887B946B900202081206060607B
:1037200095F83700FFF766FF0EE02089401E2081E4
:1037300000203061266007E02089401E2081FE6065
:103740000EB9676000E0376100202861E860BDE8DD
:10375000F08100006831002010B50448007801288D
:1037600003D1FDF7DFFD0249086010BD74000020A1
:103770006800002010B50A48007880B9FDF7D2FD36
:1037800008490968441A08480068A04201D206485E
:10379000046006480068A04201D20448046010BDDD
:1037A00074000020680000206C00002070000020E1
:1037B0000021034A1160034A118001807047000014
:1037C000780000207C00002086B00020009006E0F9
:1037D000A8490968480001AA0021FFF763FAA64832
:1037E00000780128F4D101A8FEF738FC0027A3488F
:1037F0000068A0490968884205D9A04800689D4929
:103800000968B0FBF1F727B99C4800680A21B0FBB2
:10381000F1F72EE1FDF786FD804600BF00BFFCF703
:10382000F9FC009000BF00BF95480068954908600A
:1038300000209349086000BF00BF0098FCF7EEFC31
:1038400000BF00BF904800688E490968884248D987
:103850008D4800688D49884205D242F2107003906D
:103860000120029023E0884800688949884205D2F7
:103870004FF47A7003900A20029018E082480068A2
:103880008449884203D26420039002900FE07E486E
:1038900000688149884205D20A2003904FF47A706B
:1038A000029004E00120039042F2107002907648EA
:1038B00001680298B1FBF0FA72490398096848431D
:1038C000B0FBFAF042F21071081A7449088074488B
:1038D00000880988884208DA7048008870490880A2
:1038E00003E042F210706D490880FEF7C3FC00252A
:1038F00000BF00BFFCF78EFC009000BF00BF69480E
:10390000046800BF00BF0098FCF788FC00BF00BF40
:1039100026E000BF00BFFCF77DFC009000BF00BFA9
:1039200054F8980F6060002044F8980900BF00BF69
:103930000098FCF773FC00BF00BFD4F89C0005445E
:1039400000BF00BFFCF766FC009000BF00BFD4F8CA
:10395000B84000BF00BF0098FCF760FC00BF00BF8C
:10396000002CD6D145B34948854205D242F21070A9
:1039700005904FF0010B1BE04548854205D24FF4FE
:103980007A7005904FF00A0B12E04248854203D24C
:103990006420059083460BE03F48854204D20A200C
:1039A00005904FF47A7B03E00120059042F2107BF2
:1039B000B5FBFBF0049003E000200590012004908B
:1039C00000BF00BFFCF726FC009000BF00BF3548D9
:1039D000046800BF00BF0098FCF720FC00BF00BFD8
:1039E0002BE0D4F89C00059948430499B0FBF1F012
:1039F00086B242F21070864200D90646A4F888606A
:103A0000B4F88A00B04201DAA4F88A6001AB04F18C
:103A1000A802111D2046FEF715FF00BF00BFFCF7EE
:103A2000F9FB009000BF00BFD4F8B84000BF00BF52
:103A30000098FCF7F3FB00BF00BF002CD1D11A485F
:103A40000078012805D100201749087001A8FEF769
:103A500005FBFDF767FCA0EB080914480068484522
:103A600002D21248C0F8009001AA00213846FFF7A0
:103A700019F9CFE69C7C000890000020B47C000877
:103A8000840000208C00002088000020801A06009E
:103A900000093D00005A62020084D7178000002010
:103AA000820000209C0000207E0000209400002066
:103AB00010B58AB0044600201F4908601F490860FD
:103AC0001F4908601F4908701F4908701F48006897
:103AD00020B946F62B6020800AB010BD1C48006853
:103AE0001C490968884203D246F62C602080F3E71F
:103AF000194800783F2803D346F62A602080EBE778
:103B0000032000210591CDE90704069108461049DC
:103B10000968124A12680D4B1B68CDE90132CDE9E4
:103B200003100D48007800230D4A0EA100901248A2
:103B3000FEF7AAFB00BFCFE7840000208C00002026
:103B400088000020900000207E000020A07C00085B
:103B5000A87C0008B07C0008987C0008A47C0008C1
:103B6000C937000875432F4F532D494949205374D5
:103B70006174205461736B006834002070B5044692
:103B80000D4645B12A462146064800F025FB032094
:103B900084F8360002E0022084F836002046FFF761
:103BA000ADFD70BDB40000202DE9F04104460D4686
:103BB00000BF002694F8377094F8360008285FD2CA
:103BC000DFE800F004191E1F1A1B20212046FFF712
:103BD00095FD84F8375094F83700FFF7F9FC2C482E
:103BE0000068844203D12046FFF74AFD02E02046E8
:103BF000FFF766FD46E000BF00BF84F8375041E0A4
:103C000000BF00BF00BF84F8375094F83400082884
:103C100031D2DFE800F0300431050B06073200BF77
:103C200000BF00BF2046FFF7A1FB27E02046FFF7BB
:103C30009DFB206BC068466AAF4205DD96F83700F1
:103C4000A84217DC002615E096F83700B84211D1DB
:103C50003046FFF7D3FA054696F83800A84202DA54
:103C600096F8380000E02846054696F83700A84246
:103C700000D1002602E000BF00BF00BF00BF01E08E
:103C8000BDE8F08100BF3446002C92D100BFF7E7B9
:103C9000DC0000200021C0F8B4100949096819B9F6
:103CA0000021C0F8B81007E005490968C0F8B8104D
:103CB00003490968C1F8B400014908607047000071
:103CC0009C000020D0F8B420D0F8B8104AB90D4BB1
:103CD000196011B10023C1F8B4300023C0F8B83026
:103CE0000FE029B90023C2F8B830C0F8B43008E0BA
:103CF000C2F8B810C1F8B4200023C0F8B830C0F83A
:103D0000B43070479C0000200021044A1160044A2E
:103D10001180044A11600180704700009C0000205F
:103D2000A00000209800002070B50446002020600C
:103D3000A0606060E06020616061A061E06126A039
:103D4000206200206062A062E062A064A065A4F826
:103D50005C00002104F16000FFF7FCF900202067FF
:103D60006067E067A4F88400C4F88000002506E0DE
:103D7000002104F1780040F82510681CC5B2002D20
:103D8000F6D000203434A061E0662067E06084F85B
:103D90005200A06760672082E0612062A4F85400AE
:103DA000A4F85600A065E065FDF7BCFA0646266655
:103DB00000206066E06720706070A0704020E070B6
:103DC00020710020A060C4F88000C4F8840004A022
:103DD000C4F88800343C70BD3F5461736B00000030
:103DE0002000000070B504460D46002600BF00BF4D
:103DF000FCF710FA064600BF00BF0020288094F8A8
:103E0000360008285ED2DFE800F004050607122716
:103E1000394B00BF00BF00BF00BF00BF3046FCF7FA
:103E2000FDF900BF00BF47F25310288055E014F899
:103E3000860F401E207014F8860928B9002084F8E7
:103E400036002046FFF706FC00BF00BF3046FCF7F7
:103E5000E5F900BF00BF40E014F8860F401E207057
:103E600014F8860910B9012084F8360000BF00BF9D
:103E70003046FCF7D3F900BF00BF2EE014F8860FE0
:103E8000401E207014F8860910B9022084F836000C
:103E900000BF00BF3046FCF7C1F900BF00BF1CE007
:103EA00014F8860F401E207014F8860910B90320FC
:103EB00084F8360000BF00BF3046FCF7AFF900BF02
:103EC00000BF0AE000BF00BF3046FCF7A7F900BF03
:103ED00000BF46F62D60288070BD00BFFDF7C8FF0B
:103EE00000BFF9E708B504480068FEF79BFB694688
:103EF0000020FEF79DFA08BDDC0000202DE9F84304
:103F00000446884617461D464FF0000900BF00BF13
:103F1000FCF780F9814600BF00BF0CB96748046810
:103F2000A7640020288094F83600082876D2DFE8BD
:103F300000F0040550510607525300BF00BF00BFF8
:103F40000420012804D0022813D0042833D122E011
:103F5000E06CFF280CD100BF00BF4846FCF75EF9BB
:103F600000BF00BF46F6C55028800020BDE8F8839A
:103F700022E04FF6FF71E06C88420BD100BF00BF1A
:103F80004846FCF74BF900BF00BF46F6C5502880F5
:103F90000020EBE710E0E06C401C58B900BF00BF08
:103FA0004846FCF73BF900BF00BF46F6C5502880E5
:103FB0000020DBE700E000BF00BFE06C401CE064D5
:103FC000E66C00BF00BF4846FCF728F900BF00BF01
:103FD00071E000BF00BF00BF94F83400072815D17E
:103FE00000231A46214618460097FFF74FFAE66C61
:103FF00000BF00BF4846FCF711F900BF00BF08F43E
:10400000004000284AD1FDF733FF47E00420012893
:1040100005D0022813D0042833D122E03FE0E06C21
:10402000FF280BD100BF00BF4846FCF7F7F800BFE0
:1040300000BF46F6C5502880002097E722E04FF6E3
:10404000FF71E06C88420BD100BF00BF4846FCF70F
:10405000E5F800BF00BF46F6C5502880002085E780
:1040600010E0E06C401C58B900BF00BF4846FCF7A8
:10407000D5F800BF00BF46F6C5502880002075E780
:1040800000E000BF00BFE06C401CE064E66C00BFD5
:1040900000BF4846FCF7C2F800BF00BF0BE000BFFE
:1040A00000BF4846FCF7BAF800BF00BF46F62D60D7
:1040B0002880002600BF00BF304657E7DC00002004
:1040C00070B504460D46002600BF00BFFCF7A2F8FD
:1040D000064600BF00BF0CB93D4804683C48006874
:1040E00084420ED13B48007800280ADD00BF00BFA3
:1040F0003046FCF793F800BF00BF46F663502880B7
:1041000070BD0020288094F83600082850D2DFE8DF
:1041100000F0041523313F404142042084F836006A
:10412000012084F886002046FFF7E8FA00BF00BFB0
:104130003046FCF773F800BF00BF44E0052084F868
:104140003600012084F8860000BF00BF3046FCF72F
:1041500065F800BF00BF36E0062084F83600012075
:1041600084F8860000BF00BF3046FCF757F800BF58
:1041700000BF28E0072084F83600012084F886007C
:1041800000BF00BF3046FCF749F800BF00BF1AE08F
:1041900000BF00BF00BF94F88600401C84F8860072
:1041A00000BF00BF3046FCF739F800BF00BF0AE08F
:1041B00000BF00BF3046FCF731F800BF00BF46F635
:1041C0002D6028809CE700BFFDF752FE00BF97E7F7
:1041D000DC0000207400002070B51546066846B962
:1041E0000D6500264E618E61C861016001268680E2
:1041F00033E0046802682B4624E0166D9E421DD30E
:1042000096696EB90B6500268E614A61C861166DAC
:10421000F61A1665916101608688761C86800CE02E
:1042200094690B658C614A61C861166DF61A166552
:10423000916161618688761C868070BD166D9B1BBE
:1042400014465269002AD8D10B658C6100264E6154
:10425000C86161618688761C868000BFEDE700003A
:104260002DE9F04104460D4690461F46B8F1040F73
:104270000ED1284800682E1A16F5803F01D8002E6E
:104280003CD10020206547F27E203880BDE8F081D7
:10429000B8F1080F29D11F49606D0968081AA842B2
:1042A00005D92E461B4800682844606526E0194958
:1042B000606D0968081A2E1A16F5803F00D886B975
:1042C0001449606D0968081AB0FBF5F005FB005051
:1042D000616D084460650020206547F27E203880CB
:1042E000D4E7606D2844606508E00DB12E4605E016
:1042F0000020206547F27E203880C7E7012084F83F
:104300003600324621460448FFF766FF0020388019
:1043100000BFBBE7A4000020AC00002030B5C2699C
:1043200083694169ABB929B900241460948004659C
:10433000C4611EE000248C610C6D056D2C440C657D
:1043400011609488641E9480002444610465C461F3
:104350000FE0596121B18B610C6D056D2C440C652A
:10436000002484619488641E948000244461046560
:10437000C46130BD704700002DE9F0474FF00009DF
:1043800000BF00BFFBF746FF814600BF00BFFCF740
:10439000C9FF064600271D4D2C683CB3206D401E0A
:1043A00020651FE0781C87B294F83600012806D1FA
:1043B000002084F836002046FFF74CF906E094F818
:1043C0003600052802D1042084F836006069286090
:1043D0002C6814B90020A88007E0A888401EA88097
:1043E0000020A061206D0028DCD000BFEF80FCF72A
:1043F00099FFA0EB060800BF00BF4846FBF70EFF81
:1044000000BF00BF4046BDE8F0870000AC000020C0
:104410002DE9F05F4FF0000B00BF00BFFBF7FAFE85
:10442000834600BF00BFFCF77DFF07464FF0000842
:104430003B4D2C68002C63D0206D401E20655BE056
:1044400008F101001FFA80F8002694F834000428CF
:1044500002D1206BC068466A0020A065A4F85C0009
:10446000FCF760FFA0642046FEF7D5FF94F8360005
:10447000032806D12046FFF7EDF8002084F8360027
:1044800006E094F83600072802D1042084F83600AC
:10449000032084F83500002084F8340006B396F831
:1044A000370096F8381088421AD096F8370094F8FA
:1044B0003710884214D13046FEF7A0FE814696F8A8
:1044C0003800484502DA96F8380000E04846814650
:1044D00096F83700484503D049463046FFF764FB5D
:1044E000606928602C6814B90020A88007E0A888BB
:1044F000401EA8800020A061206D0028A0D000BF31
:10450000A5F80680FCF70EFFA0EB070A00BF00BF6E
:104510005846FBF783FE00BF00BF5046BDE8F09F42
:10452000B400002008B5002728E06B4600221146A1
:104530001046FEF783F8BDF80000F8B900BF00BFD1
:10454000FBF768FE074600BF00BF0D480068401C2F
:104550000B49086000BF00BF3846FBF75FFE00BF95
:1045600000BFFFF709FF0646FFF752FF0546741923
:1045700004480068A04201D202480460D5E7000068
:10458000A4000020A800002010B58AB00446002036
:104590002049086020490860204908601E49888039
:1045A000C8801E498880C8801D48006820B947F22D
:1045B000122020800AB010BD1A4800681A49096804
:1045C000884203D247F213202080F3E7174800788F
:1045D0003F2803D347F211202080EBE70B20002176
:1045E0000591CDE90704069108460E490A6810496D
:1045F00009680B4B1B68CDE90131CDE903200B485D
:10460000007800230B4A0CA100901048FDF73CFEF7
:1046100000BFCFE7A4000020AC000020B4000020C1
:10462000BC7C0008C47C0008B07C0008B87C000892
:10463000C07C00082545000875432F4F532D49497C
:1046400049205469636B205461736B002835002046
:1046500010B58AB0044600202F4908602F49086031
:104660002F4908802F48006840B12F4800682D4925
:104670000968B0FBF1F02D49086006E02A4800689F
:104680000A21B0FBF1F02949086028480068284950
:10469000086000202749086027490860224627A1B2
:1046A0002A48FDF7FFF9208808B10AB010BD284854
:1046B000006818B947F247302080F6E725480068BF
:1046C00025490968884203D247F248302080ECE748
:1046D000224800783F2803D347F246302080E4E7A1
:1046E0000B20002105910A46CDE9070406911948DF
:1046F00000681B490968164B1B68CDE90131CDE9FB
:104700000302164800780023164A17A100901C489F
:10471000FDF7BAFD00BFC8E7BC000020C4000020C0
:10472000C0000020D07C0008B47C0008D400002029
:10473000D8000020D0000020CC0000204F5320548F
:104740006D72204D7574657800000000E83500201A
:10475000D47C0008DC7C0008B07C0008CC7C00081D
:10476000D87C0008A147000875432F4F532D4949B5
:10477000492054696D6572205461736B000000001C
:10478000183600200EB502A801AB00221146009099
:104790000148FDF7BFF90EBDE83500207047000065
:1047A0001CB53FE001AB6A4600210846FDF746FF15
:1047B000FFF7E8FFFCF7B6FD06461B480068401C03
:1047C00019490860194804681FE001A8FDF7A2FB19
:1047D000D4F81080A069401EA061A06980B9A08CA7
:1047E000022802D1206AA06105E0204600F022F8EC
:1047F000032084F82600A56815B12046E168A84783
:10480000444601A8FDF7B6FB00BF002CDDD1FCF744
:1048100089FD871B00F030F805480068B84201D2D6
:1048200003480760BEE70000D0000020C40000205D
:10483000CC00002010B50E4B1B68834206D10169E5
:104840000B4B196039B100234B6104E041690269E7
:104850000A6102B15161012380F82630002303610F
:104860004361044B1B885B1E024C238010BD00007B
:10487000C4000020C000002008B56A46002102489C
:10488000FDF730FA08BD0000E835002029B1064ADE
:1048900012680243044B1A6004E0034A1268824320
:1048A000014B1A60704700003038024029B1064AB7
:1048B00012680243044B1A6004E0034A1268824300
:1048C000014B1A60704700004038024029B1064A87
:1048D00012680243044B1A6004E0034A12688243E0
:1048E000014B1A60704700002038024029B1064A87
:1048F00012680243044B1A6004E0034A12688243C0
:10490000014B1A60704700004438024029B1064A42
:1049100012680243044B1A6004E0034A126882439F
:10492000014B1A607047000024380240F0B50021A6
:1049300000220024022500260223324F3F6807F0A0
:104940000C0121B1042905D0082937D105E02E4FEB
:10495000076036E02D4F076033E02A4F3F1F3F6866
:10496000C7F38056274F3F1F3F6807F03F036EB1E4
:10497000264FB7FBF3F7DFF88CC0ACF1040CDCF882
:1049800000C0CCF3881C07FB0CF40CE01E4FB7FBF7
:10499000F3F7DFF870C0ACF1040CDCF800C0CCF326
:1049A000881C07FB0CF4174F3F1F3F68C7F30147F4
:1049B0007F1C7D00B4FBF5F7076002E0124F076033
:1049C00000BF00BF0F4F3F6807F0F0010909104F0B
:1049D0007A5C0768D74047600A4F3F6807F4E051A8
:1049E000890A0B4F7A5C4768D7408760054F3F685C
:1049F00007F46041490B064F7A5C4768D740C760AF
:104A0000F0BD0000083802400024F40040787D0129
:104A1000000000201CB5012140F2D710FFF736FF3F
:104A20007020009001208DF804008DF806008DF8AC
:104A3000070000208DF8050069463948FCF7CFFCD7
:104A400040F60500009069463648FCF7C8FC022095
:104A5000009069463448FCF7C2FC41F2080000901F
:104A600069463248FCF7BBFC4AF20C0000906946EC
:104A70002F48FCF7B4FC4FF48070009069462D4835
:104A8000FCF7ADFC4FF46060009069462A48FCF7E3
:104A9000A6FC4FF40060009000208DF80400022076
:104AA0008DF8070000208DF8050069461F48FCF7C7
:104AB00096FC08201E491831088004200880400216
:104AC00018490883C0101B49183108800220164974
:104AD0001831088000021849183108802020104938
:104AE000088340200883C001114918310880C01094
:104AF00011491831088040010D4918310880012002
:104B000008490883102006490883042005490883C2
:104B100008200649088300020749183108801CBD97
:104B20000010024000200240000402400000024049
:104B3000001C024000080240001802407848C0787B
:104B400000F0010018B108207649088003E0082031
:104B50007449891E08807248C07800F0020018B1BC
:104B600004207049088003E004206E49891E0880F3
:104B70006B48C07800F0040020B14FF400606A492F
:104B8000488303E04FF40060674908836448C078B5
:104B900000F0080020B14FF480706449088004E000
:104BA0004FF480706149891E08805D48C07800F02C
:104BB000100018B102205E49088003E002205C4921
:104BC000891E08805648C07800F0200020B14FF4BC
:104BD00000705849088004E04FF400705549891E60
:104BE00008804F48C07800F0400018B1202052499A
:104BF000488302E02020504908834948C07800F0EB
:104C0000800018B140204C49488302E040204A49C6
:104C100008834348007900F0010020B94048007A39
:104C200000F0200020B14FF400503E49088004E01D
:104C30004FF400503B49891E08803948007900F044
:104C4000020020B93648007A00F0400020B14FF44D
:104C500080603849088004E04FF480603549891E3F
:104C600008802F48007900F0080020B14FF4004080
:104C70002C49088004E04FF400402A49891E08802E
:104C80002748007900F0100020B92548007A00F08C
:104C9000800018B101202449488302E00120224904
:104CA00008831F48007900F0200020B91C48407A92
:104CB00000F0010018B110201F49488302E01020C5
:104CC0001D4908831648007900F0400020B91448B7
:104CD000407A00F0020018B104201349488302E032
:104CE0000420114908830E48007900F0800018B1B3
:104CF00008201249488302E0082010490883084828
:104D0000407900F0010020B14FF4006009490880AB
:104D100004E04FF400600749891E088070470000D6
:104D2000783800201A1C0240002002401A08024075
:104D30001A0402401A18024000100240000002400B
:104D400000B587B001210846FFF7A0FD0121080347
:104D5000FFF7CCFDE020009002208DF805008DF8D3
:104D6000040000208DF8060069461B48FCF737FB5D
:104D7000052211461848FCF77AFB05220621164841
:104D8000FCF775FB052207211348FCF770FB002098
:104D9000ADF808004FF48270ADF80A000020ADF8BD
:104DA0000C00ADF80E000120ADF810004002ADF887
:104DB00012003820ADF814000020ADF816000720CE
:104DC000ADF8180002A9054800F024F801210348B5
:104DD00000F006F807B000BD0000024000300140BE
:104DE00021B1028842F04002028004E002884FF6BE
:104DF000BF731A40028070470246002013890B409F
:104E00000BB1012000E000207047014688897047FF
:104E10008181704710B50022028802F441520B884C
:104E20004C8823438C882343CC8823430C89234319
:104E30004C8923438C892343CC8923431A43028022
:104E4000838B4FF2FF74234083830B8A038210BD50
:104E500070B504460025002600BF02210E48FFF76A
:104E6000CBFF0028F9D021460B48FFF7D1FF0025E2
:104E700000E06D1C40F21A408542FADB00BF0121C0
:104E80000548FFF7B9FF0028F9D00348FFF7BDFF39
:104E9000C6B2304670BD00000030014070470000CF
:104EA0000CB50020019000904148006840F480302B
:104EB0003F49086000BF3E48006800F400300090A1
:104EC0000198401C0190009818B90198B0F5A04FC6
:104ED000F1D13748006800F4003010B10120009093
:104EE00001E0002000900098012860D13048403057
:104EF000006840F080502E49403108602D4800681D
:104F000040F440402B49086029480830006828498F
:104F1000083108600846006840F400400860084610
:104F2000006840F4A05008602348091F0860081F6B
:104F3000006840F08070091F086000BF1C480068CE
:104F400000F000700028F9D01A48006840F4803062
:104F50001849086000BF1748406800F480300028F6
:104F6000F9D01448006840F400301249086000BFCE
:104F70001048406800F400300028F9D040F2057075
:104F80000E4908600A480830006820F0030008490C
:104F9000083108600846006840F00200086000BF61
:104FA00003480830006800F00C000828F8D10CBD58
:104FB0000038024000700040195A4007003C02408F
:104FC00070B5002500240BE00120FBF7AFFC06467E
:104FD000092C00DB35444FF6FF70FCF7F6F9641C32
:104FE0000A2CF1DB2E462E480068301A2D49086045
:104FF0004FF6FF70FCF7E9F9002500240BE02320B1
:10500000FBF794FC0646092C00DB35444FF6FF7095
:10501000FCF7DBF9641C0A2CF1DB2E462248006801
:10502000301A204948604FF6FF70FCF7CEF9002592
:1050300000240BE04520FBF779FC0646092C00DB39
:1050400035444FF6FF70FCF7C0F9641C0A2CF1DB05
:105050002E4616480068301A124988604FF6FF70D5
:10506000FCF7B3F9002500240BE06720FBF75EFC9A
:105070000646092C00DB35444FF6FF70FCF7A5F916
:10508000641C0A2CF1DB2E4609480068301A0549D9
:10509000C8604FF6FF70FCF798F9002570BD00005E
:1050A000F8000020E8360020040100201001002054
:1050B0001C01002010B52DED028B8548007800F012
:1050C000020088B90121834800F0C1F900220121C2
:1050D000804800F093FA00217E4800F0BFFA9FED6F
:1050E0007E0A7E4880ED000A7948407900F0010090
:1050F00000287CD04FF400617948FCF7DBF90128E7
:1051000006D17348007A00F0EF007149087205E09B
:105110006F48007A40F010006D4908726C480078C2
:1051200000F00200002832D06948007800F0040046
:1051300070B34FF400616A48FCF7BCF9002826D12F
:105140006348407900F001000028ECD06048007A04
:1051500040F010005E4908724FF400406149088039
:105160005B48007900F0F70059490871084600785B
:1051700040F0010008700846007800F0F90008705F
:105180000846C07900F0FE00C87101F025FE9CE0E1
:105190000121504800F05BF9012211464D4800F012
:1051A0002DFA4E480068FBF7A7F941EC180B53ECB9
:1051B000182B4DA000F0C0FB0121464800F04AF931
:1051C0004E4890F844004E4908704C48B0F84400EE
:1051D00000124870494890F8420088704748B0F87B
:1051E00042000012C870084690ED000A00E066E038
:1051F000F2EE040A20EE200A80ED000A90ED000A8B
:105200003648D0ED000AB4EEE00AF1EE10FA3DDBCC
:105210004FF400613248FCF74DF9B8BB2C48407997
:1052200000F0010090B32A48007A40F010002849AD
:1052300008724FF400402B4908802548007900F09F
:10524000F700234908710846007840F00100087013
:105250000846007800F0F90008700846C07900F0B0
:10526000FE00C87101211B4800F0F1F80022012165
:10527000184800F0C3F90021164800F0EFF99FED3F
:10528000160A164880ED000A01F0A6FD1C4890EDB4
:10529000000A1248D0ED000AB4EEE00AF1EE10FA6E
:1052A00013D201210B4800F0D2F800220121094855
:1052B00000F0A4F90021074800F0D0F905E0044807
:1052C000007A00F0EF0002490872BDEC028B10BDBD
:1052D000783800200004004000000000A0010020F9
:1052E00000000240181C024054696D6572335F6310
:1052F0006F75743A3A3A2566200A00004E3900204C
:10530000D801002010B51548006840F4700013491A
:1053100008601348006840F001001149086000204F
:105320000F49083108600E4800680E4908400C49D2
:1053300008600D48091D0860081F006820F48020DF
:10534000091F0860002006490C310860FFF7A8FD1E
:105350004FF0006001498039086010BD88ED00E021
:1053600000380240FFFFF6FE1030002410B500F0B8
:1053700057F80121880700F06AF810BD10B50748FA
:1053800090ED000AF7EE000A30EE200A80ED000AE8
:105390000121034800F05BF810BD0000A0010020CF
:1053A0000004004010B52DED028B002400BF00BFAB
:1053B000FAF730FF044600BF00BF104890ED000A26
:1053C000F7EE000A30EE200A80ED000A0068FBF7D5
:1053D00093F841EC180B53EC182B09A000F0ACFA31
:1053E00000BF00BF2046FAF719FF00BF00BF012130
:1053F000064800F02CF8BDEC028B10BD9C0100208B
:1054000020256620BCC6CAB10D0A00000008004075
:1054100010B50121014800F01AF810BD000C004041
:1054200010B502480068804710BD00001C02002033
:1054300021B1028842F08002028004E002884FF627
:105440007F731A4002807047CA4302827047CA4382
:105450000282704721B1028842F00102028004E01A
:1054600002884FF6FE731A400280704710B504465A
:105470005548844208D101210846FFF747FA002128
:105480000120FFF743FA9DE0B4F1804F08D10121DC
:105490000846FFF71BFA00210120FFF717FA91E0F9
:1054A0004A48844208D101210220FFF70FFA002167
:1054B0000220FFF70BFA85E04548844208D101211C
:1054C0000420FFF703FA00210420FFF7FFF979E039
:1054D0004048844208D101210820FFF7F7F9002154
:1054E0000820FFF7F3F96DE03B48844208D1012121
:1054F0001020FFF7EBF900211020FFF7E7F961E03A
:105500003648844208D101212020FFF7DFF900212D
:105510002020FFF7DBF955E03148844208D1012112
:105520000220FFF7F3F900210220FFF7EFF949E02D
:105530002C48844209D101210804FFF7E7F9002132
:105540004FF48030FFF7E2F93CE02748844209D16C
:1055500001214804FFF7DAF900214FF40030FFF78A
:10556000D5F92FE02148844209D101218804FFF7B1
:10557000CDF900214FF48020FFF7C8F922E01C4844
:10558000844208D101214020FFF7A0F900214020EA
:10559000FFF79CF916E01748844208D101218020CA
:1055A000FFF794F900218020FFF790F90AE01248F4
:1055B000844207D101218015FFF788F90021A01549
:1055C000FFF784F910BD0000000001400004004016
:1055D00000080040000C0040001000400014004093
:1055E00000040140004001400044014000480140E7
:1055F00000180040001C0040002000401AB18389C0
:105600000B43838102E083898B43838170470000D1
:105610000EB501210220FFF749F940F2E730019071
:1056200042F22730ADF800000020ADF80800ADF8D8
:1056300002006946084800F013F801210648FFF708
:1056400003FF012211460448FFF7D8FF002102485A
:10565000FFF700FF0EBD00000004004041627047EC
:1056600000220288184B98420ED0184B98420BD05B
:10567000B0F1804F08D0164B984205D0154B984298
:1056800002D0154B984204D14FF68F731A404B88C5
:105690001A43124B984207D0114B984204D04FF650
:1056A000FF431A400B891A4302804B68C3620B8880
:1056B0000385054B984202D0044B984201D18B7A66
:1056C00003860123838270470000014000040140EB
:1056D0000004004000080040000C004000100040A2
:1056E0000014004010B500F003F8FFF791FF10BD63
:1056F00008B54FF4E060FCF775F81D208DF8000048
:1057000001208DF8010003208DF8020001208DF8A2
:1057100003006846FCF72AF808BD000010B5FCF746
:105720003DF940F225510C4800F040F8012806D11F
:1057300001F04EFF40F22551074800F00FF840F20B
:105740002771054800F032F8012801D101F048FF27
:10575000FCF73AF910BD00000044004010B50022EB
:10576000002340F66A14A14200D100BF0A120124AE
:105770009440A3B2DC43048010BD21B1828942F47D
:105780000052828104E082894DF6FF731A408281C3
:10579000704702460020B1F5007F00D100BF13889A
:1057A0000B400BB1012000E00020704770B50246AD
:1057B000002400230025002040F66A16B14200D1E3
:1057C00000BFC1F3421501F01F03012606FA03F3DF
:1057D000012D02D19689334006E0022D02D1168AAE
:1057E000334001E0968A33400C12012606FA04F495
:1057F0001688344013B10CB1012000E0002070BDC8
:10580000F0B50346002400260025002040F66A1764
:10581000B94200D100BF1846C1F3421401F01F067F
:10582000012707FA06F5012C01D10C3004E0022C07
:1058300001D1103000E014301AB107682F4307601F
:1058400002E00768AF430760F0BD00002DE9FF47A5
:1058500005460E460024A14600BFA046B08900B10F
:1058600000BF2C8A24F44054F08804432C82AC8975
:1058700041F20C608443B088318908437189084340
:105880000443AC81AC8A24F44074B0890443AC82F4
:105890006846FFF74BF82048854202D01F488542F2
:1058A00002D1DDF80C9001E0DDF80890A88900F441
:1058B000004040B109EBC90000EB09103168490014
:1058C000B0FBF1F707E009EBC90000EB0910316804
:1058D0008900B0FBF1F76420B7FBF0F00401200968
:1058E000642101FB1078A88900F4004040B1322007
:1058F00000EBC800B0FBF1F000F00700044308E043
:10590000322000EB08106421B0FBF1F000F00F0032
:1059100004432C81BDE8FF870010014000140140C2
:1059200001468888C0F308007047C1F308028280EE
:10593000704700BFFEE700000FB4054B10B503A988
:10594000044A029800F0CAF810BC5DF814FB00008D
:1059500039730008B402002002E008C8121F08C111
:10596000002AFAD170477047002001E001C1121FE0
:10597000002AFBD1704700002DE9FF5FDDE902201E
:10598000010DDDF838B0024318D044F61050A1F2F2
:10599000FF3141430D140F98012820D0A5EB0B00D7
:1059A000401C5FEA000A4FF00004474EDFF81C91EC
:1059B000A046504616D5CAF1000728E00F980124EA
:1059C00043A2012808D0002100980F9BC0E90021C4
:1059D000C0E90243BDE8FF9F6FEA0B01F4E7CBF19A
:1059E0000000DEE7074612E0F80707D022463346FC
:1059F00040464946FAF70EFD804689462246334620
:105A000010461946FAF706FD04460E467F10002F91
:105A1000EAD1DDE90201BAF1000F42464B4602DA53
:105A2000FAF7F8FC01E0FAF71EFE04460E460022E3
:105A3000284BFAF79FFE03D84FF0FF30014607E0EE
:105A40000022254B20463146FAF73DFCFAF77AFE54
:105A5000102409E0002C0ADB0A220023FAF7F0FBED
:105A6000019B30321A55641E50EA0102F2D1641CC7
:105A7000019AC4F1110314440F9A012A03D00122A0
:105A800008430DD10AE0084304D000204FF0110B69
:105A90000F9080E7A3EB0B056D1E0DE05B4504DD69
:105AA0004FF0000205F1010504E003DA4FF00002B7
:105AB000A5F10105002AECD000980F99C0E9023148
:105AC000C0E9004586E70000000024400000F03FE8
:105AD000300000000000F0430000E03F2DE9FF4FE0
